:100000000C9434000C9451000C9451000C94510049
:100010000C9451000C9451000C9451000C9451001C
:100020000C9451000C9451000C9451000C9451000C
:100030000C9451000C9451000C9483000C945100CA
:100040000C9451000C9451000C9451000C945100EC
:100050000C9451000C9451000C9451000C945100DC
:100060000C9451000C94510011241FBECFEFD8E026
:10007000DEBFCDBF11E0A0E0B1E0E4E5F6E002C0F4
:1000800005900D92AC32B107D9F721E0ACE2B1E0B6
:1000900001C01D92A734B207E1F70E94A6000C949C
:1000A00028030C940000882341F0289A662339F035
:1000B0005F9A442331F05E9A08952898F7CF5F98AD
:1000C000F8CF5E980895662311F0009711F440E090
:1000D00018C083309105A1F048F48130910569F092
:1000E00040E061E0029799F780E005C041E061E0FF
:1000F000049769F781E00C94530040E060E0FACF88
:1001000041E060E0F1CF1F921FB61F9211248F9340
:100110009F93AF93BF9380912C0190912D01A0915B
:100120002E01B0912F010196A11DB11D80932C01CC
:1001300090932D01A0932E01B0932F01BF91AF9109
:100140009F918F911F901FBE1F901895CDB7DEB75E
:1001500028970FB6F894DEBF0FBECDBF84B18C6375
:1001600084B9209A8AB1806C8AB98AB1837C8AB9B1
:100170008BB18C638BB92198299A389885B1827C90
:1001800085B98BB18F738BB980E480937C0087E84D
:1001900080937A0082E084BD93E095BD99EF97BD8E
:1001A00080936E0089B199B18695827093FB9927EF
:1001B00090F9892B8093310178947724739452E0DD
:1001C000252E312C01E010E060E4662ECC24CA9488
:1001D00073E0D72EE12CF12CF89480902C019090B4
:1001E0002D01A0902E01B0902F017894A091440190
:1001F000AA2309F4B1C089B199B18695827093FBA5
:10020000992790F9892B809331011092300189B19F
:1002100084FBEE27E0F990910101E91709F4DFC0B2
:10022000E09301018092020190920301A0920401E7
:10023000B092050183B181FB662760F990910D01B1
:10024000691709F4FFC060930D0180920E0190922E
:100250000F01A0921001B092110189B185FB6627B0
:1002600060F990910701691709F427C160930701AC
:100270008092080190920901A0920A01B0920B01AC
:1002800060927C0080917A00806480937A008091F3
:100290007A0086FDFCCF2091780030917900A6EF9E
:1002A000B9E00E94190369837A838B839C83A70139
:1002B00096010E94F702CA01B90166507F4F8F4F25
:1002C0009F4F6D837E838F839887809136019091B5
:1002D0003701A0913801B0913901A5019401281B83
:1002E000390B4A0B5B0B6D817E818F8198852617B8
:1002F00037074807590768F0809236019092370116
:10030000A0923801B092390180913B0187258093FA
:100310003B0180914401882339F0809145019091FF
:100320004601892B09F000C110923A01ECE3F1E09B
:1003300080E0219131912115310509F419C1223054
:10034000310509F44BC1823009F439C190E08330A2
:1003500009F014C12A9817C199B189B192FB4424BC
:1003600040F8512C9201220F331F83FB882780F91C
:10037000282BE091310134E0E39FF0011124E22BBE
:10038000F0E0E45EFE4F808190913001890F809310
:1003900030018430ACF08091450190914601853068
:1003A0009105D0F4895E9E4FFC01808190E090938E
:1003B000460180934501109230012093310127CFEF
:1003C0008D3FDCF780914501909146018530910584
:1003D00018F48E5E9E4FE8CF90E080E0E8CF209149
:1003E0000201309103014091040150910501C501C2
:1003F000B401621B730B840B950B69317105810588
:10040000910508F417CF90910001E91709F412CF74
:10041000E0930001E1110ECF8091450190914601DA
:10042000892B09F407CF4A2F472540934401809236
:10043000320190923301A0923401B0923501709252
:100440003A01F8CE80910E0190910F01A091100118
:10045000B0911101A5019401281B390B4A0B5B0BCC
:10046000293131054105510508F4F7CE90910C0171
:10047000691709F4F2CE60930C016111EECE809100
:100480004401882309F4E9CEE0914501F091460149
:10049000CF010197049708F0E0CEE150F0E0EE0FB5
:1004A000FF1FE45CFE4F80819181029719F4118354
:1004B0000083D3CE31822082D0CE809108019091EA
:1004C0000901A0910A01B0910B01A5019401281B1B
:1004D000390B4A0B5B0B293131054105510508F4F5
:1004E000CFCE90910601691709F4CACE6093060138
:1004F0006111C6CE80914401882309F4C1CE809158
:100500004501909146019C0121503109243031056B
:1005100008F0B6CE8150E82FF0E0EE0FFF1FE45C4C
:10052000FE4F11821082ACCE809132019091330146
:10053000A0913401B0913501A5019401281B390B1C
:100540004A0B5B0BDA01C9018A3F9105A105B10590
:1005500008F4ECCE8092320190923301A0923401E3
:10056000B092350180913A01872580933A01DECE21
:1005700090913B018230F9F0833019F18130A9F07C
:10058000992389F02D9A8F5F843009F0D2CE809123
:100590004501909146010097C9F460E090E080E049
:1005A0000E94630019CE2D98EECF992311F02C9A5A
:1005B000EACF2C98E8CF992311F02B9AE4CF2B980F
:1005C000E2CF992309F4C6CE2A9ADDCF20914401C7
:1005D00060913A012111E4CF61E0E2CF823069F30A
:1005E000833091F3882371F2813009F3CCCFA1E2FB
:1005F0001A2EAA1BBB1BFD010DC0AA1FBB1FEE1F9D
:10060000FF1FA217B307E407F50720F0A21BB30BE7
:10061000E40BF50B661F771F881F991F1A9469F763
:1006200060957095809590959B01AC01BD01CF01BF
:100630000895A29FB001B39FC001A39F700D811DBB
:100640001124911DB29F700D811D1124911D0895DB
:04065000F894FFCF4C
:100654000101000000000101000000000101000090
:1006640000000400010203010203040000FF010072
:0C067400010000FFFF0000010001FF007A
:00000001FF
